S01100002E2E2F50726F746575732E73313966
S32D0000C000000000205DC2000011C3000017C300001DC3000023C3000029C3000000000000000000000000000073
S32D0000C028000000002FC3000035C30000000000003BC3000041C3000025D5000031D500003DD5000049D50000CE
S32D0000C05055D5000061D500006DD5000079D5000085D5000091D500009DD50000A9D50000B5D50000C1D5000002
S32D0000C078CDD50000D9D50000E5D50000F1D50000FDD5000009D6000015D6000021D600002DD6000039D6000025
S32D0000C0A045D6000051D600005DD6000069D6000075D6000081D600008DD6000099D60000A5D60000B1D6000048
S32D0000C0C8BDD60000C9D60000D5D60000E1D60000EDD60000F9D6000005D7000011D700001DD7000029D700006C
S32D0000C0F035D700005D2A010041D700004DD7000059D7000065D7000071D700007DD7000089D7000095D700007E
S32D0000C118A1D70000ADD70000B9D70000C5D70000D1D70000DDD70000E9D70000F5D7000001D800000DD800002B
S32D0000C14019D8000025D8000031D800003DD80000D900010049D8000055D8000061D800006DD8000079D80000CE
S32D0000C16885D8000091D800009DD80000A9D80000B5D80000C1D80000CDD80000D9D80000E5D80000F1D80000EB
S32D0000C190FDD8000009D9000015D90000D1FC000099FB000035FC0000A9D2000071FD000021D900002DD9000061
S32D0000C1B839D9000064BB010000000020C816000064BB01000000FF1F00000000C8160020800400000000FF1F4B
S32D0000C1E00000000080B489B000AFF860B9607A60BB68FB61FB68BB6100237B617A697B689A420BD2BA69131DFB
S32D0000C208BB61FB69191DF96112681A607B6904337B61EFE700BF2437BD4680BC704780B485B000AF786039609E
S32D0000C2307B68FB600023BB60BA683B689A4208D2FB681A1DFA6000221A60BB680433BB60F2E700BF1437BD46FE
S32D0000C25880BC704780B586B000AF72B6234B4CF220521A80214B4DF628121A80204B4FF4E9721A801F4B7B615F
S32D0000C2807B691F4A934214D27B691A1D7A611B683B617B691A1D7A611B68FB607B691A1D7A611B68BB60BA68E9
S32D0000C2A8F9683869FFF79AFFE6E77B69134A93420ED27B691A1D7A611B68FB607B691A1D7A611B68BB60B9688B
S32D0000C2D0F868FFF7A8FFECE70B4B7B600B4A7B681A6008F03BFD62B601F0A6F800F0E8FCFEE700BF0E200540CB
S32D0000C2F800200540BCC10000D4C10000E4C1000008ED00E000C0000080B400AFFEE780B400AFFEE780B400AFF4
S32D0000C320FEE780B400AFFEE780B400AFFEE780B400AFFEE780B400AFFEE780B400AFFEE780B400AFFEE780B426
S32D0000C34800AFFEE7FFFFFFFFFFFFFFFFFFFFFFFFFFFFFFFFFFFFFFFFFFFFFFFFFFFFFFFFFFFFFFFFFFFFFFFF57
S32D0000C370FFFFFFFFFFFFFFFFFFFFFFFFFFFFFFFFFFFFFFFFFFFFFFFFFFFFFFFFFFFFFFFFFFFFFFFFFFFFFFFFC7
S32D0000C398FFFFFFFFFFFFFFFFFFFFFFFFFFFFFFFFFFFFFFFFFFFFFFFFFFFFFFFFFFFFFFFFFFFFFFFFFFFFFFFF9F
S32D0000C3C0FFFFFFFFFFFFFFFFFFFFFFFFFFFFFFFFFFFFFFFFFFFFFFFFFFFFFFFFFFFFFFFFFFFFFFFFFFFFFFFF77
S32D0000C3E8FFFFFFFFFFFFFFFFFFFFFFFFFFFFFFFFFFFFFFFFFFFFFFFFFFFFFFFFFFFFFFFFFFFFFFFFFEFFFFFF50
S32D0000C44010B5054C237833B9044B13B10448AFF300800123237010BDC81600200000000010C4000008B5034B4F
S32D0000C4681BB103490348AFF3008008BD00000000CC16002010C4000080B582B000AF78603960544803F0CEFCA6
S32D0000C490534803F0CBFC3B68002B44D1514806F083F90346184607F059FC02460B464FF000004D4907F0D4FD12
S32D0000C4B802460B46104619464FF00002494B07F0A1FC02460B461046194607F07DFF03461946454801F0B4FA0A
S32D0000C4E0404806F061F90346184607F037FC02460B464FF000003C4907F0B2FD02460B46104619464FF00002F3
S32D0000C508384B07F07FFC02460B461046194607F05BFF03461946354801F092FA43E02F4806F03EF90346184661
S32D0000C53007F014FC02460B464FF000002E4907F08FFD02460B46104619464FF00002274B07F05CFC02460B461B
S32D0000C5581046194607F038FF03461946224801F06FFA1E4806F01CF90346184607F0F2FB02460B464FF0000092
S32D0000C5801D4907F06DFD02460B46104619464FF00002164B07F03AFC02460B461046194607F016FF03461946A7
S32D0000C5A8124801F04DFA0C4803F02AFC02467B689342CCBF01230023DBB2002B00D0F2E7094801F0FBF90948AC
S32D0000C5D001F0F8F900BF0837BD4680BDE4160020E81600204C1A00200000274000003940EC160020F416002033
S32D0000C5F8000027C000000000B0B586B000AF78600B46FB708E4803F00DFC8E4803F00AFC786807F09FFB4FF0FF
S32D0000C62000028B4B07F0F2FB02460B461046194607F086FE03467B61FB78662B56D1854806F0B2F80346184603
S32D0000C64807F088FB02460B464FF00000804907F003FD02460B46104619464FF000027D4B07F0D0FB02460B4600
S32D0000C670104619466EA3D3E9002307F0C7FB02460B461046194607F0A3FE03461946744801F0DAF96F4806F083
S32D0000C69887F80346184607F05DFB02460B464FF000006E4907F0D8FC02460B46104619464FF00002674B07F06D
S32D0000C6C0A5FB02460B46104619465BA3D3E9002307F09CFB02460B461046194607F078FE03461946604801F0F7
S32D0000C6E8AFF958E0FB78622B55D1584806F058F80346184607F02EFB02460B464FF00000564907F0A9FC024616
S32D0000C7100B46104619464FF00002504B07F076FB02460B461046194645A3D3E9002307F06DFB02460B4610464E
S32D0000C738194607F049FE03461946474801F080F9424806F02DF80346184607F003FB02460B464FF000003E49F5
S32D0000C76007F07EFC02460B46104619464FF000023A4B07F04BFB02460B46104619462EA3D3E9002307F042FBB7
S32D0000C78802460B461046194607F01EFE03461946334801F055F903F03BF8C7E90201294803F02EFB04462648A2
S32D0000C7B003F02AFB03462344184607F0BDFA4FF000024FF0804307F04BFC02460B4614461D46786907F0B0FA2E
S32D0000C7D802460B462046294607F086FD0346002B13D003F015F8D7E9022307F053F902460B46104619464FF03F
S32D0000C80000021A4B07F074FD0346002B01D0012300E00023002B00D0C5E7114801F0D2F8114801F0CFF800BF44
S32D0000C8281837BD46B0BD00BF5C8FC2F5285CEF3F295C8FC2F528F03FAE47E17A14AEEF3FE4160020E816002076
S32D0000C850004044404C1A00200000274000003940EC160020000027C0F416002000002040B0B588B000AFF86059
S32D0000C8780B467A60FB72604803F0D4FA5F4803F0D1FAF86807F066FA4FF000025C4B07F0B9FA02460B461046F4
S32D0000C8A0194607F04DFD0346FB61FB7A662B29D1786807F053FA4EA3D3E9002307F0A6FA02460B46104619464C
S32D0000C8C807F082FD034619464E4801F0B9F87B6883F00043184607F03DFA45A3D3E9002307F090FA02460B46E6
S32D0000C8F01046194607F06CFD03461946444801F0A3F82BE0FB7A622B28D17B6883F00043184607F023FA36A35B
S32D0000C918D3E9002307F076FA02460B461046194607F052FD03461946364801F089F8786807F010FA2EA3D3E911
S32D0000C940002307F063FA02460B461046194607F03FFD034619462E4801F076F802F05CFFC7E90401274803F0F0
S32D0000C9684FFA0446244803F04BFA03462344184607F0DEF94FF000024FF0804307F06CFB02460B4614461D4697
S32D0000C990F86907F0D1F902460B462046294607F0A7FC0346002B13D002F036FFD7E9042307F074F802460B46EE
S32D0000C9B8104619464FF00002144B07F095FC0346002B01D0012300E00023002B00D0C5E70C4800F0F3FF0C48D7
S32D0000C9E000F0F0FF00BF2037BD46B0BDAFF30080AE47E17A14AEEF3F295C8FC2F528F03FE4160020E816002008
S32D0000CA0800404440EC160020F41600200000204080B584B002AF7223FB714FF000004FF0804102F0CFFE4FF434
S32D0000CA307F01834804F0B9F9FF23009340F26313002200217E4804F068FEFF23009340F26313002200217A48C5
S32D0000CA5804F01CFF00233B603B68132B10DC6FF07F41754804F09DF9744803F0FDF903461946714804F0CDFBEE
S32D0000CA803B6801333B60EBE76E4803F0F1F90346184607F063F960A3D3E9002307F028FC0346002B10D06748B7
S32D0000CAA803F0E2F90346184607F054F95AA3D3E9002307F037FC0346002B01D0012300E00023002B1CD0722389
S32D0000CAD0FB715B4804F023F94FF47F01584804F064F9FF23009340F2631300220021544804F013FEFF2300936F
S32D0000CAF840F26313002200214F4804F0C7FE3DE04E4803F0B1F90346184607F023F944A3D3E9002307F0E8FB2B
S32D0000CB200346002B10D0474803F0A2F90346184607F014F93EA3D3E9002307F0F7FB0346002B01D0012300E0D9
S32D0000CB480023002B1AD06223FB713B4804F0E3F8FF21394804F025F9FF23009340F2631300220021344804F081
S32D0000CB70D4FDFF23009340F2631300220021304804F088FE01214FF4D270FFF779FC2E4A62212E48FFF76CFE51
S32D0000CB98FB79722B19D12C492C4800F051FF24A1D1E9000102F00EFE62212948FFF724FD2849264800F044FFB0
S32D0000CBC01DA1D1E9000102F001FE224800F0FAFE1BE0FB79622B18D12049214800F034FF15A1D1E9000102F04E
S32D0000CBE8F1FD62211A48FFF707FD17491A4800F027FF0FA1D1E9000102F0E4FD164800F0DDFE00BF0837BD4612
S32D0000CC1080BD00BFAFF3008085EB51B81E85DB3F52B81E85EB51C83F333333333333EB3F9A9999999999D93FA7
S32D0000CC389A9999999999E93F001A0020141700200000A0413333334000007041F4160020CDCC4C3E000070C1A1
S32D0000CC60EC1600200000000080B500AF4FF000000F4902F0ABFD0F490F4800F0E5FE0AA1D1E9000102F0A2FDF6
S32D0000CC880C490B4800F0DCFE05A1D1E9000102F099FD074800F092FE00BF80BDAFF300809A999999999905405A
S32D0000CCB00000F03F0000C8C1FC1600200000C84190B583B000AF1949194806F06BFB184806F094FD78601749FE
S32D0000CCD8174804F08BFA1749154804F087FA40F23631154803F0BEFB4FF40A61124803F0D6FB1249104803F010
S32D0000CD00EFFB114803F0B4F80346012214464FF07C51184607F076FE0346002B01D100231C46E3B2002B11D01C
S32D0000CD28EBE700BF8CB00100681A002098B00100001A0020A4B001000417002000002A4314170020C649C74884
S32D0000CD5000F07AFEC649C74800F076FEB6A1D1E9000102F033FDC14800F02CFEC14800F029FEBD49BF4800F057
S32D0000CD7867FEB1A1D1E9000102F024FDBB4800F01DFE6621BA48FFF737FCB749B54800F057FEABA1D1E90001FF
S32D0000CDA002F014FDB14800F00DFEFFF75DFF4FF00000B24902F00AFD6221B148FFF720FC01218220FFF75CFB4A
S32D0000CDC86621AE48FFF718FC00218620FFF754FBAB49AC4803F080FB4FF000004FF0804102F0F0FCA84A6621BE
S32D0000CDF0A848FFF73DFDA849A44803F071FB4FF000009E4902F0E2FC6221A448FFF7F8FBA34A6221A348FFF71A
S32D0000CE182BFD4FF00000A24902F0D4FC904A6621A048FFF721FD4FF000009D4902F0CAFC0121D120FFF720FB7A
S32D0000CE404FF000008D4902F0C1FC994A66219948FFF70EFD4FF00000884902F0B7FC00215020FFF70DFB6621E9
S32D0000CE689348FFF7C9FB01215020FFF705FB86497E4800F0E5FD8F497A4800F0E1FD4FF000008D4902F09EFC0F
S32D0000CE90784800F097FD754800F094FD89497B4803F01EFB4FF00000744902F08FFC62218548FFF7A5FB4FF0B3
S32D0000CEB80000704902F086FC8249724803F00CFB00215020FFF7D8FA6749664800F0B8FD6349664800F0B4FD49
S32D0000CEE05BA1D1E9000102F071FC604800F06AFD604800F067FD5C49644803F0F1FA4FF000006F4902F062FC9D
S32D0000CF08714806F085FC0346002B0CBF01230023DBB2002B23D06B495A4803F0DDFA00211420FFF7A9FA5049F3
S32D0000CF304E4800F089FD4C494E4800F085FD4FF000005F4902F042FC484800F03BFD494800F038FD44494D4883
S32D0000CF5803F0C2FA4FF00000464902F033FC62214548FFF749FB3AA1D1E9000102F02AFC4FF00001434803F057
S32D0000CF80AFFA3B49394800F05FFD3749394800F05BFD4FF000004F4902F018FC334800F011FD344800F00EFD73
S32D0000CFA84B49384803F098FA4FF00000314902F009FC62214FF08140FFF71EFB4149314803F08AFA4FF00000C7
S32D0000CFD02A4902F0FBFB00216420FFF751FA66213E48FFF70DFBFFF717FD21491F4800F02BFD1D491F4800F037
S32D0000CFF827FD4FF000001E4902F0E4FB194800F0DDFC1A4800F0DAFC4FF000004FF0804102F0D8FB274913484F
S32D0000D02000F012FD0EA1D1E9000102F0CFFB0F4800F0C8FC662153E09A9999999999E93FCDCCCCCCCCCC004030
S32D0000D048CDCCCCCCCCCCEC3FCDCCCCCCCCCCFC3F3333333333331340333333333333E33F0000A041F4160020DE
S32D0000D0700000A0C1EC160020000010400000F03F000020406666D6400000944204170020000070419A99D93F41
S32D0000D098000009439A99794000000C420000C0400000E03F6666A63F00002042CDCC1C41CDCCCC40000070C1E6
S32D0000D0C000000840000034429A99A94000002A43681A00200000F83F00007042000040403548FFF78DFA0121D4
S32D0000D0E84FF4D270FFF7C8F93249334800F0A8FC3249334800F0A4FC4FF00000314902F061FB2D4800F05AFC0C
S32D0000D1102D4800F057FC66212D48FFF771FA4FF000004FF0804102F051FB2A49244800F08BFC2249244800F042
S32D0000D13887FC1BA1D1E9000102F044FB1E4800F03DFC1F4800F03AFC62212148FFF754FA66214FF07E50FFF7C8
S32D0000D1604FFA0121D720FFF78BF962211B48FFF747FA00213220FFF783F962214FF08040FFF73EFA164802F0C3
S32D0000D18873FE03461946154804F043F806A1D1E9000102F017FB114803F0BDFDEEE700BF66666666666606402A
S32D0000D1B09A9999999999E93F0000E0400000A041F41600200000A0C1EC16002000000C4000004040000020C236
S32D0000D1D8000020410000704114170020001A002080B582B000AF786039607B68012B33D13B684FF6FF729342CA
S32D0000D2002ED10021184802F051FB0121174802F04DFB174A0121174800F096FB144A0021154800F091FB124A70
S32D0000D2280221144800F08CFB0321134803F0FEF80821124802F008FE1F21114802F004FE0821104802F000FE01
S32D0000D2500A210F4802F0FCFD0C210E4802F0F8FD00BF0837BD4680BDE4160020E816002000001041EC160020F0
S32D0000D278F4160020FC160020041700201017002014170020181700201C1700202017002080B500AF4FF6FF71CD
S32D0000D2A00120FFF7A1FF80BD80B500AF0F4BD3F8A03003F48053002B14BF01230023DBB2002B10D0094BD3F8CD
S32D0000D2C8A030084A23F48053C2F8A030064806F057FB064B1B68054A23F40053136000BF80BD00BF00C004404D
S32D0000D2F0781A0020C0F00F4080B400AF124B4FF480725A63114B5B69104A43F4005353610E4B1B680D4A43F40B
S32D0000D318005313600A4B0C4A1A630C4BD3F888310A4A43F08063C2F88831084B9B68074A43F08063936000BFD2
S32D0000D340BD4680BC704700BF00C00440C0F00F4003010A0000E100E080B400AF334B00225A70324B98221A702A
S32D0000D368304B9B79DBB203F01003002B14BF01230023DBB2002B00D0F2E72A4B9B79DBB29B08DBB203F0030390
S32D0000D390022B14BF01230023DBB2002B00D0F0E7224B18221A71214B00225A71204B03F580531A461F4B536487
S32D0000D3B81C4B54225A711B4B9B79DBB203F02003002B0CBF01230023DBB2002B00D0F2E7144B9B79DBB203F0F1
S32D0000D3E04003002B0CBF01230023DBB2002B00D0F2E70E4B1B78DBB20C4A03F03F03DBB213700A4B9B79DBB234
S32D0000D4089B08DBB203F00303032B14BF01230023DBB2002B00D0F0E700231846BD4680BC704700BF004006406A
S32D0000D430007004400000130180B500AF314B03F580539B6B2F4A43F4785302F580529363FFF752FFFFF780FFDF
S32D0000D4582B4B58221A602A4B1B684FF47A7202FB03F3284A1360274B1B681A46234B03F580535B6C1B0E03F0CC
S32D0000D4800F030133B2FBF3F31A46214B1A601D4B03F58053DB6B1B4A43F0225302F58052D363184B03F58053AC
S32D0000D4A81B6B164A43F0006302F580521363174B4FF480721A61642002F05AF8134B5B69124A23F01003536169
S32D0000D4D0104B00221A600F4B10225A610E4803F0ABFA02F0ADFD02F00BFE0C4802F0A6F80B4806F09DFA4FF464
S32D0000D4F8FA6002F051F900BF80BD00BF007004404C190020481900205019002000D00340001A002044190020A8
S32D0000D520E81A002080B500AFFEF70DFF00BF80BD80B500AFFEF707FF00BF80BD80B500AFFEF701FF00BF80BD2A
S32D0000D54880B500AFFEF7FBFE00BF80BD80B500AFFEF7F5FE00BF80BD80B500AFFEF7EFFE00BF80BD80B500AF79
S32D0000D570FEF7E9FE00BF80BD80B500AFFEF7E3FE00BF80BD80B500AFFEF7DDFE00BF80BD80B500AFFEF7D7FEA1
S32D0000D59800BF80BD80B500AFFEF7D1FE00BF80BD80B500AFFEF7CBFE00BF80BD80B500AFFEF7C5FE00BF80BD8F
S32D0000D5C080B500AFFEF7BFFE00BF80BD80B500AFFEF7B9FE00BF80BD80B500AFFEF7B3FE00BF80BD80B500AFB5
S32D0000D5E8FEF7ADFE00BF80BD80B500AFFEF7A7FE00BF80BD80B500AFFEF7A1FE00BF80BD80B500AFFEF79BFE19
S32D0000D61000BF80BD80B500AFFEF795FE00BF80BD80B500AFFEF78FFE00BF80BD80B500AFFEF789FE00BF80BDCA
S32D0000D63880B500AFFEF783FE00BF80BD80B500AFFEF77DFE00BF80BD80B500AFFEF777FE00BF80BD80B500AFF0
S32D0000D660FEF771FE00BF80BD80B500AFFEF76BFE00BF80BD80B500AFFEF765FE00BF80BD80B500AFFEF75FFE90
S32D0000D68800BF80BD80B500AFFEF759FE00BF80BD80B500AFFEF753FE00BF80BD80B500AFFEF74DFE00BF80BD06
S32D0000D6B080B500AFFEF747FE00BF80BD80B500AFFEF741FE00BF80BD80B500AFFEF73BFE00BF80BD80B500AF2C
S32D0000D6D8FEF735FE00BF80BD80B500AFFEF72FFE00BF80BD80B500AFFEF729FE00BF80BD80B500AFFEF723FE08
S32D0000D70000BF80BD80B500AFFEF71DFE00BF80BD80B500AFFEF717FE00BF80BD80B500AFFEF711FE00BF80BD41
S32D0000D72880B500AFFEF70BFE00BF80BD80B500AFFEF705FE00BF80BD80B500AFFEF7FFFD00BF80BD80B500AF68
S32D0000D750FEF7F9FD00BF80BD80B500AFFEF7F3FD00BF80BD80B500AFFEF7EDFD00BF80BD80B500AFFEF7E7FD83
S32D0000D77800BF80BD80B500AFFEF7E1FD00BF80BD80B500AFFEF7DBFD00BF80BD80B500AFFEF7D5FD00BF80BD80
S32D0000D7A080B500AFFEF7CFFD00BF80BD80B500AFFEF7C9FD00BF80BD80B500AFFEF7C3FD00BF80BD80B500AFA6
S32D0000D7C8FEF7BDFD00BF80BD80B500AFFEF7B7FD00BF80BD80B500AFFEF7B1FD00BF80BD80B500AFFEF7ABFDFB
S32D0000D7F000BF80BD80B500AFFEF7A5FD00BF80BD80B500AFFEF79FFD00BF80BD80B500AFFEF799FD00BF80BDBC
S32D0000D81880B500AFFEF793FD00BF80BD80B500AFFEF78DFD00BF80BD80B500AFFEF787FD00BF80BD80B500AFE1
S32D0000D840FEF781FD00BF80BD80B500AFFEF77BFD00BF80BD80B500AFFEF775FD00BF80BD80B500AFFEF76FFD72
S32D0000D86800BF80BD80B500AFFEF769FD00BF80BD80B500AFFEF763FD00BF80BD80B500AFFEF75DFD00BF80BDF7
S32D0000D89080B500AFFEF757FD00BF80BD80B500AFFEF751FD00BF80BD80B500AFFEF74BFD00BF80BD80B500AF1D
S32D0000D8B8FEF745FD00BF80BD80B500AFFEF73FFD00BF80BD80B500AFFEF739FD00BF80BD80B500AFFEF733FDEA
S32D0000D8E000BF80BD80B500AFFEF72DFD00BF80BD80B500AFFEF727FD00BF80BD80B500AFFEF721FD00BF80BD33
S32D0000D90880B500AFFEF71BFD00BF80BD80B500AFFEF715FD00BF80BD80B500AFFEF70FFD00BF80BD80B500AF58
S32D0000D930FEF709FD00BF80BD80B500AFFEF703FD00BF80BD0000000080B584B000AFF8600B467A60FB72FB6892
S32D0000D958FA7A1A71FB6800225A711749786807F04DF80346002B02D0134B7B600AE04FF07E51786807F02EF862
S32D0000D9800346002B02D04FF07E537B60786806F0E5F909A3D3E9002306F038FA02460B461046194606F014FD8C
S32D0000D9A80246FB681A60FB6818461037BD4680BDABAAAAAAAAAA20400000404180B582B000AF78607B685B7961
S32D0000D9D0002B09D07B6800225A717B6819791E230022034801F064FE00BF0837BD4680BD4419002080B584B0BB
S32D0000D9F800AF786039603B687F2B02DD7F23FB7308E03B6813F1800F02DA8023FB7301E03B68FB737B685B79F1
S32D0000DA20FA7B9A4209D07B68FA7B5A717B681979FA7B1E23034801F03BFE00BF1037BD4680BD00BF4419002069
S32D0000DA48B0B584B000AF786039603749386806F0B7FF0346002B02D0334B3B6008E03349386806F0CBFF0346BF
S32D0000DA70002B01D02F4B3B60386806F06FF904460D467B681B68184606F068F94FF00002294B06F0E5FA0246EF
S32D0000DA980B462046294606F0B5F902460B461046194606F091FC03463B604FF00001386806F09AFF0346002BFE
S32D0000DAC010D0386806F04AF917A3D3E9002306F09DF902460B461046194606F031FC0346FB6018E0386806F0B7
S32D0000DAE839F94FF00002134B06F08CF902460B46104619464FF000020D4B06F0ADFA02460B461046194606F0FC
S32D0000DB1017FC0346FB60F9687868FFF76BFF00BF1037BD46B0BD00BF52B81E85EB51F43F0000C8C20000C842AA
S32D0000DB38000059400000604080B483B000AF03460A46FB711346BB71BB79002B03D1134B00221A7002E0114B6B
S32D0000DB6001221A703823FB710E4B1A78FB791343FB710D4B9B78DBB20B4A43F01003DBB29370094B9B78DBB2EB
S32D0000DB88074A43F02003DBB29370054AFB79137100BF0C37BD4680BC704700BF211700200060064080B483B0D5
S32D0000DBB000AF01237B607B68312B04DC00BF7B6801337B60F7E700BF0C37BD4680BC704780B582B000AF034694
S32D0000DBD80A46FB711346BB71134B1B7800211846FFF7AAFF00F024F8104AFB79137100F01FF80E4ABB7913715A
S32D0000DC0000F01AF80B4B9B78DBB20A4A23F02003DBB29370074B9B78DBB2064A23F01003DBB29370FFF7C2FF35
S32D0000DC2800BF0837BD4680BD221700200060064080B483B000AF174B1B78002B24D100237B60154BDB78DBB228
S32D0000DC5003F00203002B0CBF01230023DBB2002B0DD07B6842F21072934203DD0B4B01221A7004E07B68013390
S32D0000DC787B6000BFE5E7084BDB78DBB2064A43F00203DBB2D37000E000BF0C37BD4680BC704700BF231700209C
S32D0000DCA00060064080B582B000AF0346FB71FB79184600F05FF800BF0837BD4680BD80B582B000AF03460A46DF
S32D0000DCC8FB711346BB7100F035F8FB795B00DBB21846FFF7E3FFBB791846FFF7DFFF00F037F800BF0837BD4608
S32D0000DCF080BD80B500AFFF2000F03CF80346184680BD80B584B000AF0346FB7100F016F8FB795B005BB243F0E4
S32D0000DD1801035BB2DBB21846FFF7C0FFFFF7E5FF0346FB7300F014F8FB7B18461037BD4680BD000080B400AF61
S32D0000DD40044B9B68034A43F48013936000BFBD4680BC704740F00F4080B400AF044B5B68034A43F48013536066
S32D0000DD6800BFBD4680BC704740F00F4080B485B000AF0346FB710023BB73164BDB6A03F00043012B0CBF012344
S32D0000DD900023DBB2002B03D0FB7B0133FB73F0E70E4BDB6A0D4A43F00043D3620B4AFB7953630A4BDB6A03F418
S32D0000DDB80033002B0CBF01230023DBB2002B00D0F3E7044B9B6BBB73BB7B18461437BD4680BC704700C00A4009
S32D0000DDE080B582B000AF204B03F580531B6B1E4A43F4805302F5805213631C4B4FF480721A651B4B5B691A4AE9
S32D0000DE0843F480135361FFF7A3FF164B4FF400725A65144B4FF400729A65124B4FF40072DA65124B124A1A606A
S32D0000DE30104B124ADA6000237B607B68092B06DCFF20FFF72FFF7B6801337B60F5E704A1D1E9000101F0BAFCC4
S32D0000DE5800BF0837BD4680BD9A9999999999B93F0070044000A0044040F00F4000C00A40000C00800500003EDF
S32D0000DE8090B486B000AFF860B9607A60FB68534A93420AD1524B03F580535B6B504A43F4806302F580525363EF
S32D0000DEA845E0FB684D4A93420AD14B4B03F580535B6B494A43F4006302F58052536336E0FB68474A93420AD1F0
S32D0000DED0434B03F580535B6B414A43F4805302F58052536327E0FB68404A93420AD13C4B03F580535B6B3A4AB1
S32D0000DEF843F4005302F58052536318E0FB683A4A93420AD1344B03F580539B6A324A43F4806302F580529362C1
S32D0000DF2009E02F4B03F580539B6A2D4A43F4006302F580529362FB68DB78DBB223F00C03DAB2FB68DA70FB68D0
S32D0000DF4800229A70BB684FF47A7203FB02F27B681B0192FBF3F39CB2FB681B78DBB223F01F03FB75230A9BB2D9
S32D0000DF70DBB203F01F03DAB2FB7D1343DAB2FB681A70E2B2FB685A70BB684FF4FA4203FB02F27B681B0192FB2D
S32D0000DF98F3F39AB263019BB2D31A9CB2FB689B7ADBB223F01F03FB75E3B203F01F03DAB2FB7D1343DAB2FB68A0
S32D0000DFC09A72FB68DB78DBB243F00C03DAB2FB68DA7000BF1837BD4690BC704700A006400070044000B00640C5
S32D0000DFE800C0064000D0064000A00E4080B483B000AF78607B681B79DBB203F02003002B0CBF01230023DBB22F
S32D0000E010002B00D0F2E77B68DB79DBB218460C37BD4680BC704780B483B000AF78600B46FB707B681B79DBB205
S32D0000E0385BB2DB43DBB2DB09DBB2002B00D0F4E77B68FA78DA7100BF0C37BD4680BC704780B487B000AFF860B1
S32D0000E060B9607A60FB687B617B685A1E7A60002B14BF01230023DBB2002B06D07B695A1C7A61BA68D2B21A70F3
S32D0000E088EEE700BF1C37BD4680BC704780B584B000AF786039607B681B6BFB60FA683B689A4252D07B681B79C6
S32D0000E0B0002B35D07B6858787B6803F134010123FA6801F0F7F80346002B14BF01230023DBB2002B01D00123B2
S32D0000E0D83CE07B6800221A717B685A6A7B681B6A1344FA689A4217D27B68DB78FB72FB7A012B11D97B681B6A4B
S32D0000E100FA681344FB607B6858787B6803F134010123FA6801F0CEF8FB7A013BFB72EAE73B68002B15D07B685C
S32D0000E12858787B6803F1340101233A6800F0DAFF0346002B14BF01230023DBB2002B01D0012303E07B683A68BB
S32D0000E1501A63002318461037BD4680BD80B584B000AF786000217868FFF794FF0346FB73FB7B002B40F0938007
S32D0000E1787B681B78032B7DD17B685B79002B79D07B6800221A637B6834334FF4007200211846FFF75DFF7B6827
S32D0000E1A0552283F832227B68AA2283F833227B68522283F834207B68522283F835207B68612283F836207B6825
S32D0000E1C8412283F837207B68722283F818227B68722283F819227B68412283F81A227B68612283F81B227B689D
S32D0000E1F01B69DAB27B6883F81C227B681B699BB21B0A9BB2DAB27B6883F81D227B681B691B0CDAB27B6883F88E
S32D0000E2181E227B681B691B0EDAB27B6883F81F227B68DB68DAB27B6883F820227B68DB689BB21B0A9BB2DAB21A
S32D0000E2407B6883F821227B68DB681B0CDAB27B6883F822227B68DB681B0EDAB27B6883F823227B6858787B6880
S32D0000E26803F134017B685A69012301F01FF87B6800225A717B685B7800220021184601F0E1F80346002B14BF55
S32D0000E29001230023DBB2002B01D00123FB73FB7B18461037BD4680BD80B582B000AF78600B467B807B68002B5B
S32D0000E2B808D07B681B78002B04D07B68DB887A889A4201D0092311E07B685B78184601F03BF9034603F0010360
S32D0000E2E0002B14BF01230023DBB2002B01D0032300E0002318460837BD4680BD80B586B000AF78607B681A68E5
S32D0000E3087B689B8819461046FFF7CAFF0346FB75FB7D002B40F0AC807B689B7903F02003002B00F0A5807B6885
S32D0000E3309B7903F04003002B1BD07B681B6858787B6803F128017B689A69012300F0B2FF0346002B14BF012313
S32D0000E3580023DBB2002B01D001238AE07B689B7923F04003DAB27B689A717B681A687B68DB6919461046FFF75F
S32D0000E38089FE0346FB75FB7D002B75D17B681B6A3B613B690B331A783B690B3342F02002D2B21A707B68DA6865
S32D0000E3A83B691C33D2B21A707B68DB689BB21B0A9AB23B691D33D2B21A707B68DB681A0C3B691E33D2B21A7011
S32D0000E3D07B68DB681A0E3B691F33D2B21A707B681A693B691A33D2B21A707B681B699BB21B0A9AB23B691B3351
S32D0000E3F8D2B21A707B681B691A0C3B691433D2B21A707B681B691B0C9BB21B0A9AB23B691533D2B21A700023FA
S32D0000E420FB603B691633FA68D2B21A70FB689BB21B0A9AB23B691733D2B21A70FB681A0C3B691833D2B21A7073
S32D0000E448FB681A0E3B691933D2B21A707B689B7923F02003DAB27B689A717B681B6801221A717B681B6818469E
S32D0000E470FFF774FE0346FB75FB7D18461837BD4680BD80B584B000AF78607868FFF736FF0346FB73FB7B002BA5
S32D0000E49802D17B6800221A60FB7B18461037BD4680BD000080B588B000AF7860396080233B610F23FB604FF011
S32D0000E4C0FF337B610223FB61FB69B3F5807F23D80123BB61BB69102B1AD8FB69BA6902FB03F33A6803FB02F2FA
S32D0000E4E87B68D31ABB60BB68002B09DBBB687A699A4205D9BB687B61FB693B61BB69FB60BB690133BB61E1E76F
S32D0000E510FB695B00FB61D7E71D4BDB6A1C4A23F00803D3621A4BDB6A23F47F2323F47F63BB613B695B081B0202
S32D0000E5389AB2FB68013B1B01DBB21A43BB691343114A43F46023D3620F4B5B6A03F00803002B0CBF01230023A6
S32D0000E560DBB2002B03D00A2001F01AF9F0E7084BDB6A074A43F00803D362054B1B6B044A43F48013136300BF7E
S32D0000E5882037BD4680BD00BF00100B4080B582B000AF786039607B6800221A60414B424ADA62404BDB6A03F097
S32D0000E5B08073002B14BF01230023DBB2002B00D0F3E73A4B0022C3F8C020384B4FF481325A60364B28229A6267
S32D0000E5D8344B4FF001125A643B689B6833491846FFF760FF2F4B5B6A03F00303002B14BF01230023DBB2002B7C
S32D0000E60000D0F3E72C4B40F243421A602A4B40F243425A60284B4FF488629A60264B40F24342DA60244B40F217
S32D0000E62843421A61224B40F243425A61214B03F580531B6B1F4A43F4003302F580521363184B4FF6FF721A6380
S32D0000E650164B1B4A5A63154BDB6A144A43F00063D362124BDB6A03F00063002B14BF01230023DBB2002B00D086
S32D0000E678F3E70C4B5B6A03F48033002B14BF01230023DBB2002B02D07B6801221A60054B1B6B044A43F08003AB
S32D0000E6A01363002318460837BD4680BD00100B400080000160CC050000D0044000700440B3007F0080B400AFEC
S32D0000E6C8064B5A6A40F207331340002B14BF01230023DBB21846BD4680BC704700100B4080B485B000AF7860DF
S32D0000E6F0074B1B6B7A681340FB60FB68002B00D1F6E7FB6818461437BD4680BC704700BF00100B4080B584B0D3
S32D0000E71800AF78607B681B7803F03F03764A52F82330FB60FB68002B05D17B681B78002B01D00123DCE0714B77
S32D0000E7401B6B704A43F0800313636E4B5B6A03F00103002B14BF01230023DBB2002B00D0F3E7684A7B685B68CB
S32D0000E7689360FB6823F44003FB607B685B789B0503F44003FA681343FB607B685B78022B03D1FB6843F4001371
S32D0000E790FB607B685B78042B16D1FB6803F44033B3F5003F08D1FB6823F44033FB60FB6843F44033FB6007E010
S32D0000E7B8FB6823F44033FB60FB6843F40033FB604E4B5B684D4A9BB253607B68DB68002B2AD0FB6803F44033B8
S32D0000E7E0B3F5403F03D0FB6843F40013FB607B681B7A002B03D0FB6843F01003FB607B68DB68012B03D9FB68FE
S32D0000E80843F02003FB607B68DB68B3F1FF3F0BD03A4B5A687B68DB681B04384913434B60FB6843F00203FB604A
S32D0000E830344B00221A60334AFB68D3603248FFF753FF0346012B14BF01230023DBB2002B09D02C4B1B6B2B4A38
S32D0000E85843F4702343F001031363012348E0274B1B6B03F08003002B14BF01230023DBB2002B07D0214B1B6B9B
S32D0000E880204A43F001131363012335E01D4B1B6B03F48033002B14BF01230023DBB2002B08D0184B1B6B174A53
S32D0000E8A843F0011313634FF0FF3321E0FB6803F44033002B15D0114B1A697B681A61FB6803F44033B3F5803FC5
S32D0000E8D00BD10C4B5A697B685A610A4B9A697B689A61084BDA697B68DA61064B1B6B054A43F0010313630023A6
S32D0000E8F818461037BD4680BDC4B0010000100B4001000E0080B592B000AF7860396000237B643B68BB63994BF0
S32D0000E9207B637B6B002B02D140F601235FE3964B3B633B6B002B02D140F60B2357E33B6B1B68FB62FB6A002B94
S32D0000E94802D140F60B234EE37B6841F20932934200F23F837B68B3F5985F08D87B68032B00F01A837B68092B48
S32D0000E97000F0098331E37B68A3F59853013B082B00F22B8301A252F823F000BFB1E900009DEC0000F9EE0000AB
S32D0000E998B3EC0000F1EC000017EE00005FEE0000A1ED0000BBED00007649786BFFF7EEFD78647B6C002B40F0AC
S32D0000E9C01083002387F84330002387F82B30002387F82A30002387F82930002387F84230002387F8283000235C
S32D0000E9E83B7200237B720023FB6000233B7400237B6107F108031846FFF788FE0346002B14BF01230023DBB2FD
S32D0000EA10002B02D001237B64E8E240F24C4000F0BFFE08233B7200237B724FF4D573FB6000233B7400237B6104
S32D0000EA3807F108031846FFF769FEF863FB6B002B09D1BA69FB689A4202D001237B64C9E2012387F84230012311
S32D0000EA6087F8283097F82830002B00F0A58037233B7200237B720023FB6000233B7400237B6107F108031846C3
S32D0000EA88FFF744FEF863FB6B002B02D001237B64A8E269233B7200237B720023FB6000233B7400237B6107F14D
S32D0000EAB008031846FFF72EFE0346002B14BF01230023DBB2002B02D001237B648EE2BB6903F44013002B6FD04A
S32D0000EAD80023FB630A2000F05FFEFB6B0133FB6337233B7200237B720023FB6000233B7400237B6107F10803B7
S32D0000EB001846FFF707FE0346002B14BF01230023DBB2002B02D001237B6428E069233B7200237B7297F8423021
S32D0000EB28002B02D0184BFB6002E04FF44013FB6000233B7400237B6107F108031846FFF7E5FD0346002B14BFE0
S32D0000EB5001230023DBB2002B02D001237B6406E0BB69002B03DBFB6B632B00D8B6E77B6C002B40F03882FB6BE5
S32D0000EB78632B0BD9002387F8423019E0381700203C190020B8B0010000003040012387F8433097F84230002BF1
S32D0000EBA00AD0002387F84230BB6903F08043002B02D0012387F8423097F82A30002B02D07B6B07221A6097F86F
S32D0000EBC82930002B02D07B6B08221A6097F82B30002B02D07B6B04221A6097F84330002B09D07B6B02221A6048
S32D0000EBF097F84230002B02D07B6B03221A6097F82B30002B0DD097F84330002B09D07B6B05221A6097F84230F4
S32D0000EC18002B02D07B6B06221A60924B00221A60904B00225A608F4B00229A608D4B0022DA608C4B00221A617B
S32D0000EC408A4B00225A61FB6A9A68FB6A5B6819461046FFF72BFC854B40F243421A60834B40F243425A60814B87
S32D0000EC684FF488629A607F4B40F24342DA607D4B40F243421A617B4B40F243425A617A4B03F580531B6B784A92
S32D0000EC9043F4003302F580521363A7E1B86BFFF739FDF863FB6B002B00F09F8102237B649BE1BB6B002B02D136
S32D0000ECB80C237B6496E16D4BDB6A1B0A5B0003F4FF73FB63694BDB6A1B0903F00F035A1CFB6B02FB03F3FB6316
S32D0000ECE0FB6A9A68FB6BB2FBF3F2BB6B1A607DE1BB6B002B02D10C237B6477E1BB6B1B68002B02D10C237B646A
S32D0000ED0870E1FFF7DBFC0346002B0CBF01230023DBB2002B3CD0534B00221A60514B00225A60504B00229A600C
S32D0000ED304E4B0022DA604D4B00221A614B4B00225A61FB6A9A68BB6B1B6819461046FFF7ADFB464B40F243426D
S32D0000ED581A60444B40F243425A60424B4FF488629A60404B40F24342DA603E4B40F243421A613C4B40F24342EA
S32D0000ED805A613B4B03F580531B6B394A43F4003302F58052136329E140F60A237B6425E1BB6B002B02D10C2302
S32D0000EDA87B641FE1314B5B68C3F30C02BB6B1A6018E1BB6B002B02D10C237B6412E1FFF77DFC0346002B0CBFEF
S32D0000EDD001230023DBB2002B19D0BB6B1B68B3F5805F02D30C237B6400E1224B5B68214A23F4FF5323F01F0300
S32D0000EDF853601E4B5A68BB6B1B68C3F30C031B4913434B60EEE040F60A237B64EAE0BB6B002B02D10C237B6430
S32D0000EE20E4E0144B9B6A5B0803F00303FB63FB6B002B03D1BB6B00221A60D7E0FB6B012B03D1BB6B01221A60DB
S32D0000EE48D0E0FB6B102B03D1BB6B02221A60C9E005237B64C6E0BB6B002B09D10C237B64C0E000BF00D00440B1
S32D0000EE700070044000100B40FFF724FC0346002B0CBF01230023DBB2002B31D0BB6B1B68002B0AD1584B9B6AB9
S32D0000EE98574A23F006039362554B554A9B6A9362A0E0BB6B1B68012B0CD1514B9B6A504A23F0060393624E4B4A
S32D0000EEC09B6A4D4A43F0020393628FE0BB6B1B68022B0AD1484B9B6A474A23F006039362454B454A9B6A9362E8
S32D0000EEE880E005237B647DE040F60A237B6479E0BB6B002B02D10C237B6473E03C4BDB6A3B4A43F00063D362FC
S32D0000EF10394BDB6A03F00063002B14BF01230023DBB2002B00D0F3E7334B1B6B03F08003002B14BF012300234E
S32D0000EF38DBB2002B08D02E4B1B6B2D4A43F0800313637B6B00221A60294B5B6A03F48033002B14BF01230023CF
S32D0000EF60DBB2002B07D07B6B1B68002B06D17B6B01221A6002E07B6B00221A607B6B1A68BB6B1A6032E0BB6B62
S32D0000EF881C221A60BB6B043304221A60BB6B08334FF41E721A6025E00220FFF7A1FB144B1B6B03F4E003002B55
S32D0000EFB014BF01230023DBB2002B07D00E4B1B6B0D4A43F4E003136304237B640A4B1B6B094A43F032031363B2
S32D0000EFD808E040F609237B6404E000BF02E000BF00E000BF7B6C18464837BD4680BD00BF00100B4080B489B074
S32D0000F00000AF786039607B687B61364B3B613B69002B01D100235FE03B691B68022B0BD03B691B68032B07D088
S32D0000F0283B691B68072B03D03B691B68082B0BD12B4B5B6A03F00403002B14BF01230023DBB2002B00D0F3E77C
S32D0000F0503B68FB61FB69002B3DD0FB69B3F5007F28BF4FF40073FB60FB6803339B08BB61BB69002B2AD01C4B6C
S32D0000F0781B6B03F4E003002B14BF01230023DBB2002B09D0164B1B6B154A43F4E00343F02003136300231BE0EA
S32D0000F0A0114B5B6A03F40063002B0CBF01230023DBB2002B00D0F3E70B497B691A1D7A610A6A1A60BB69013B90
S32D0000F0C8BB61D1E7FA69FB68D31AFB61BEE7012318462437BD4680BC704700BF3817002000100B4080B58EB0C3
S32D0000F0F000AFB9607A601A460346FB731346BB73414B7B63FB7B002B02D1BB7B002B01D1042375E03D4B1B780A
S32D0000F118DBB203F00103002B14BF01230023DBB2002B01D0032367E0BB68002B01D1002362E07B6B1B7B002BDE
S32D0000F14002D17B685B027B60BB7B012B28D111233B7500237B757B68BB6101233B77BB7B3B6207F1140319464B
S32D0000F16841F20230FFF7CEFB0346002B0CBF01230023DBB2002B38D04FF40071B868FFF739FF0346002B14BFC6
S32D0000F19001230023DBB2002B2BD00023BB7328E012233B7500237B757B68BB6101233B77BB7B3B6207F114034F
S32D0000F1B8194641F20230FFF7A5FB0346002B0CBF01230023DBB2002B0FD0BB7B5B021946B868FFF70FFF034653
S32D0000F1E0002B14BF01230023DBB2002B01D00023BB73BB7B002B01D0012300E0002300BF18463837BD4680BDBD
S32D0000F208241700200000002080B487B000AF786039607B68FB603B687B617B69002B3DD07B69B3F5007F28BF07
S32D0000F2304FF400733B617A693B69D31A7B613B6903339B083B613B69002BEAD0184B1B6B03F4E003002B14BFAB
S32D0000F25801230023DBB2002B0AD0134B1B6B124A43F4E00343F0100313634FF0FF3316E00D4B5B6A03F480633B
S32D0000F280002B0CBF01230023DBB2002B00D0F3E7FB681A1DFA60064A1B6813623B69013B3B61D0E701231846D0
S32D0000F2A81C37BD4680BC704700100B4080B58EB000AFB9607A601A460346FB731346BB735D4B7B63FB7B002BBA
S32D0000F2D002D1BB7B002B01D10423ADE0594B1B78DBB203F00103002B14BF01230023DBB2002B01D003239FE028
S32D0000F2F8524B1B78DBB203F00403002B14BF01230023DBB2002B01D0022391E0BB68002B01D100238CE07B6B38
S32D0000F3201B7B002B02D17B685B027B60BB7B012B28D118233B7500237B757B68BB6100233B77BB7B3B6207F118
S32D0000F3481403194641F20230FFF7DCFA0346002B0CBF01230023DBB2002B38D04FF40071B868FFF751FF034647
S32D0000F370002B14BF01230023DBB2002B2BD00023BB7328E019233B7500237B757B68BB6100233B77BB7B3B6278
S32D0000F39807F11403194641F20230FFF7B3FA0346002B0CBF01230023DBB2002B0FD0BB7B5B021946B868FFF7AC
S32D0000F3C027FF0346002B14BF01230023DBB2002B01D00023BB730D233B7500237B757B6B1B69BB6100233B7743
S32D0000F3E800233B6207F11403194641F20230FFF789FA0346002B14BF01230023DBB2002B01D0012314E07A6AD8
S32D0000F4100D4B1340002B01D001230DE07B6A03F4F853B3F5106F00D0D5E7BB7B002B01D0012300E0002300BF24
S32D0000F43818463837BD4680BD24170020000000200880D9FF80B58CB000AF03463A60FB710B46BB713A4BBB6230
S32D0000F460FB79002B01D0042369E0012387F82F30364B1B78DBB203F00103002B14BF01230023DBB2002B01D036
S32D0000F488032358E0BB79032B50D801A252F823F0A9F40000B1F40000C1F40000D1F40000002387F82F3044E08D
S32D0000F4B0BB6A9A683B681A60002387F82F303CE03B684FF400721A80002387F82F3034E009233B7200237B72DD
S32D0000F4D8BB6A1B69FB6000233B7400237B6107F10803194641F20230FFF70CFA0346002B14BF01230023DBB253
S32D0000F500002B01D001231AE07B6A03F44003002B0CD13B6A9B0C03F07F035A1C7B6A1B0A03F00303013B9A404C
S32D0000F5283B681A60002387F82F3002E0042387F82F3097F82F3018463037BD4680BD00BF241700200000002083
S32D0000F55080B483B000AF0346FB71FB79002B01D0012302E0034B1B78DBB218460C37BD4680BC70470000002027
S32D0000F57880B483B000AF7860164B03F580539B6B144A43F0010302F580529363124A7B689360114B05225A6082
S32D0000F5A00F4B1B680E4A43F0010313600C4B1B6803F08003002B0CBF01230023DBB2002B00D0F3E7064B1B689B
S32D0000F5C8054A23F00103136000BF0C37BD4680BC704700BF007004400000044080B582B000AF786039607B6823
S32D0000F5F0012B07D13B684FF6FF72934202D1034800F00EF800BF0837BD4680BD4419002080B500AF4FF6FF7153
S32D0000F6180120FFF7E3FF80BD80B483B000AF78607B6800221A707B6818460C37BD4680BC7047000080B582B030
S32D0000F64000AF78607B681B7883F00103DBB2002B21D0134B03F580531A464FF400639362104B4FF440721A628F
S32D0000F6680E4B4FF440725A620D4B1B68DA0F13445B104FF4614219460A48FEF7FDFB642000F08AF87B68012264
S32D0000F6901A70012300E0002318460837BD4680BD0070044000D004404819002000B00E4080B582B000AF786089
S32D0000F6B8084611461A460346FB700B46BB7013467B707F210E48FEF7AAFC08210C48FEF7A6FCFB7819460A48E2
S32D0000F6E0FEF7A1FCBB7819460748FEF79CFC7B7819460548FEF797FCFF210348FEF793FC00BF0837BD4680BDA8
S32D0000F70800B00E4080B487B000AFF860B9607A60FB681F4AA2FB03239B09BA6813447B61FB681B4AA2FB03126E
S32D0000F73092094FF47A7101FB02F29B1AFB60FB68DB03154AA2FB03239B097A6813443B613B69DB0B7A69134442
S32D0000F7587B613B69C3F30E033B610E4B1B687A699A4209D80B4B1B687A699A4206D1094B5B683A699A4201D945
S32D0000F780012300E00023002B00D0EAE700BF1C37BD4680BC704700BFD34D621000D0034080B584B000AF78600C
S32D0000F7A8074B1B68FB60064B5B68BB607B68BA68F9681846FFF7A6FF00BF1037BD4680BD00D0034080B584B0B3
S32D0000F7D000AFC7E900010E4B1B68FB600C4B5B68BB604FF000020B4BD7E9000104F00EFB02460B46104619469C
S32D0000F7F804F0CAFD0346BA68F9681846FFF782FF00BF1037BD4680BD00D0034000408F4080B584B000AF134BA9
S32D0000F8201B68FB60114B5B68BB60F86804F074FA02460B46C7E90023B86804F06DFA4FF000020B4B04F00CFC66
S32D0000F84802460B46D7E9000104F026F902460B46C7E90023D7E90023104619461037BD4680BD00BF00D00340C8
S32D0000F8700000E04080B483B000AF0B4B1B684FF47A7202FB03F37B60074B5B684FF47A7202FB03F3DB0B7A685F
S32D0000F89813447B607B6818460C37BD4680BC704700D0034080B584B000AF78600B46FB700B23FB73FA7BFB7853
S32D0000F8C01946786800F094F87B6818461037BD4680BD000080B485B000AF78607B68103B002B00DA1F335B11B6
S32D0000F8E8FB60FB68022B53D0FB68022B75DCFB68002B03D0FB68012B25D06EE0394BD3F880217B68103B594217
S32D0000F91003F01F0301F01F0158BF4B42012101FA03F332491343C1F88031304B1A687B68103B594203F01F03D6
S32D0000F93801F01F0158BF4B42012101FA03F3294913430B6049E0274BD3F884217B68103B594203F01F0301F0CC
S32D0000F9601F0158BF4B42012101FA03F31F491343C1F884311D4B5A687B68103B594203F01F0301F01F0158BF46
S32D0000F9884B42012101FA03F3164913434B6024E0144BD3F888217B68103B594203F01F0301F01F0158BF4B42E7
S32D0000F9B0012101FA03F30D491343C1F888310B4B9A687B68103B594203F01F0301F01F0158BF4B42012101FAF0
S32D0000F9D803F3044913438B6000BF00BF1437BD4680BC704700E100E080B584B000AF78600B46FB701346BB70CD
S32D0000FA007B68FA781A70BB78FB737B681B781A46574B9B5C042B00F2A68001A252F823F035FA000081FA0000F8
S32D0000FA28CDFA000065FB000019FB0000FB7B1B0403F470234D497A68127810464C4A52F8202043F4897343F078
S32D0000FA50010341F82230494B5A697B681B781946454B53F8213003F01F03012101FA03F3DB43424913404B61D1
S32D0000FA786720FFF72BFF72E0FB7B1B0403F470233D497A6812781046394A52F8202043F4897343F0010341F850
S32D0000FAA02230384B5A697B681B781946324B53F8213003F01F03012101FA03F3DB43314913404B616820FFF775
S32D0000FAC805FF4CE0FB7B1B0403F470232C497A6812781046264A52F8202043F4897343F0010341F82230274B29
S32D0000FAF05A697B681B7819461F4B53F8213003F01F03012101FA03F3DB43204913404B616920FFF7DFFE26E03A
S32D0000FB18FB7B1B0403F470231B497A6812781046134A52F8202043F4897343F0010341F82230164B5A697B6897
S32D0000FB401B7819460C4B53F8213003F01F03012101FA03F3DB430F4913404B616B20FFF7B9FE00E000BF00BF7F
S32D0000FB681037BD4680BD00BFC4B101000090044008B2010000F00F4000A0044040F00F4000B0044080F00F40CF
S32D0000FB9000D0044000F10F40B0B48BB000AF224B3C1D1D460FCD0FC495E80F0084E80F0000237B627B6A072BAF
S32D0000FBB830DC1C4BD3F8A0207B6A9B0028333B4453F8243C012101FA03F31340002B14BF01230023DBB2002BB9
S32D0000FBE018D0134A7B6A52F823305A1C10497B6A41F823200D4BD3F8A0207B6A9B0028333B4453F8243C0121F6
S32D0000FC0801FA03F307491340C1F8A0307B6A01337B62CBE700BF2C37BD46B0BC704700BF0CB3010000A004405E
S32D0000FC3074190020B0B489B000AF224B3C1D1D460FCD0FC495E8030084E803000023FB61FB69052B30DC1C4B60
S32D0000FC58D3F8A020FB699B0020333B4453F81C3C012101FA03F31340002B14BF01230023DBB2002B18D0FB69D0
S32D0000FC800833124A52F823200132104941F823200D4BD3F8A020FB699B0020333B4453F81C3C012101FA03F3C0
S32D0000FCA807491340C1F8A030FB690133FB61CBE700BF2437BD46B0BC704700BF2CB3010000B0044074190020DC
S32D0000FCD0B0B48DB000AF234B3C461D460FCD0FC40FCD0FC495E8070084E807000023FB62FB6A0A2B30DC1C4B81
S32D0000FCF8D3F8A020FB6A9B0030333B4453F8303C012101FA03F31340002B14BF01230023DBB2002B18D0FB6A0A
S32D0000FD200E33124A52F823200132104941F823200D4BD3F8A020FB6A9B0030333B4453F8303C012101FA03F3F4
S32D0000FD4807491340C1F8A030FB6A0133FB62CBE700BF3437BD46B0BC704700BF44B30100009004407419002031
S32D0000FD70B0B487B000AF214B3C461D460FCD0FC42B68236000237B617B69042B30DC1C4BD3F8A0207B699B0076
S32D0000FD9818333B4453F8183C012101FA03F31340002B14BF01230023DBB2002B18D07B691933124A52F8232070
S32D0000FDC00132104941F823200D4BD3F8A0207B699B0018333B4453F8183C012101FA03F307491340C1F8A03003
S32D0000FDE87B6901337B61CBE700BF1C37BD46B0BC704700BF70B3010000D004407419002080B483B000AF78607D
S32D0000FE107B681B781A46044B53F8223018460C37BD4680BC704700BF7419002080B483B000AF78607B681B789B
S32D0000FE381946044B002243F8212000BF0C37BD4680BC70477419002080B483B000AF78600B46FB707B68FA78AC
S32D0000FE601A707B6818460C37BD4680BC7047000080B586B000AF78607B681B781A463E4B53F822303B617B6803
S32D0000FE881B781A463B4B9B5CFB733B69DBB203F01F03DAB2384B1A723B69DBB203F01F03DAB2354B5A72354BEF
S32D0000FEB01022C3F88820FB7B002B13D13049324800F05AFA304B1B6803F08003802B14BF01230023DBB2002BE2
S32D0000FED800D0F3E72A4B1B697B6112E02649294800F046FA274B1B6803F08003802B14BF01230023DBB2002B93
S32D0000FF0000D0F3E7214B1B697B611E4BD3F888311C4A43F01003C2F888311A4B9B68194A43F0100393607B6969
S32D0000FF289BB2184603F0F4FE0DA3D3E9002303F069FF02460B46104619460BA3D3E9002304F08AF802460B4647
S32D0000FF501046194604F03CFA0346BB60BB6818461837BD4680BD00BFA4703D0AD7A30A4000000000E0FFEF4044
S32D0000FF7888B20100E4B101005419002000E100E000B0034000B00B4080B586B000AF78607B681B781A46234B18
S32D0000FFA053F822303B617B681B781A46204B9B5CFB733B69DBB203F01F03DAB21D4B1A723B69DBB203F01F0348
S32D0000FFC8DAB21A4B5A72FB7B002B13D11749184800F0CEF9164B1B6803F08003802B14BF01230023DBB2002B7B
S32D0000FFF000D0F3E7104B1B697B6112E00D490F4800F0BAF90D4B1B6803F08003802B14BF01230023DBB2002B6E
S32D0001001800D0F3E7074B1B697B617B6918461837BD4680BD88B20100E4B101006419002000B0034000B00B4030
S32D0001004098B500AF204B5C221A701F4B10225A701D4B41F234225A801B4B45F278629A80194B10229A71184B5C
S32D000100680722DA71164B4FF4C022DA60144B1F221A72134B1F225A721149124800F078F90F49114800F074F97B
S32D000100900F4800F0D2F80D4800F0CFF80A490C4800F06AF90849094800F066F9094A064B14460FCB84E80F00E6
S32D000100B8064B5C221A70054B0422DA7100BF98BD5419002000B0034000B00B406419002080B500AF064B1B681B
S32D000100E00133054A136000F03DF8044B0122C3F80C2100BF80BD00BFF81900200070034080B500AF0C4B01227F
S32D000101081A600C4800F01AF8094B0322C3F80821094BD3F88831084A43F01003C2F88831054B9B68044A43F0E4
S32D000101301003936000BF80BD00700340A086010000E100E080B483B000AF7860044A7B68C2F8003100BF0C37F7
S32D00010158BD4680BC704700BF0070034080B584B000AF174B1B68FB60FB68002B24D0FB685B78FB71FB689B682E
S32D00010180184600F023F80346BB71BB79002B13D0FB685B68012B0FDDFB689B681B69BB60BB68002B08D0BB68A4
S32D000101A85B685A1CBB685A60BB681B69BB60F3E7FB68DB68FB60D7E700BF1037BD4680BDF419002080B584B0DB
S32D000101D000AF78607868FFF7DBFEF8607B689B695B78FB72FB7A002B0FD17B68DB68FA689A420ADD7B689B6999
S32D000101F801225A707B685B685A1C7B685A60012313E0FB7A012B0FD17B689B68FA689A420ADA7B689B69002289
S32D000102205A707B685B685A1C7B685A60012300E0002318461037BD4680BD80B485B000AF78607B681B6A23F0B5
S32D0001024840027B681A627B685B6A23F00B027B685A627B685B6A43F007027B685A627B685B6A43F080027B68BC
S32D000102705A627B681B6803F08003002B0CBF01230023DBB2002B00D0F3E77B685B6A03F04003402B0CBF0123F0
S32D000102980023DBB2002B01D0012364E00023FB817B68DB6CFB817B689B6C9AB2FB891344FB817B685B6C9AB25B
S32D000102C0FB891344FB817B681B6C9AB2FB891344FB817B68DB6B9AB2FB891344FB817B689B6B9AB2FB891344CF
S32D000102E8FB81FB895B08FB81FB896FEA43436FEA5343FB81FA897B68DA620023FB817B68DB6EFB817B689B6E65
S32D000103109AB2FB891344FB817B685B6E9AB2FB891344FB817B681B6E9AB2FB891344FB817B68DB6D9AB2FB89C2
S32D000103381344FB817B689B6D9AB2FB891344FB81FB895B08FB81FB896FEA43436FEA5343FB81FA897B681A6321
S32D000103607B685B6A23F080027B685A62002318461437BD4680BC704780B483B000AF786039603B681B781A46B3
S32D000103887B689A603B685B781A467B68DA603B685B881A467B689A613B689B881A467B68DA613B689B791A4657
S32D000103B07B681A623B68DB791A467B685A623B68DA687B681A653B681B7A1A467B681A603B685B7A1A467B68D2
S32D000103D85A6000BF0C37BD4680BC704780B483B000AF78607B6818460C37BD4680BC704780B582B000AF7860EE
S32D0001040039607B68012B07D13B684FF6FF72934202D10348FFF7E6FF00BF0837BD4680BDFC19002080B500AFCF
S32D000104284FF6FF710120FFF7E3FF80BD80B483B000AF78600B46FB707B68FA781A707B684FF4FA725A807B68E2
S32D0001045040F6C4129A807B68034A9A607B6818460C37BD4680BC7047000080BF80B483B000AF786039603B684A
S32D00010478B3F5FA7F04DB3B6840F6C412934204DD7B684FF4FA725A8004E03B689AB27B685A8000BF00BF0C3733
S32D000104A0BD4680BC704780B483B000AF786039603B68B3F5FA7F04DB3B6840F6C412934204DD7B6840F6C412B9
S32D000104C89A8004E03B689AB27B689A8000BF00BF0C37BD4680BC70472DE9904385B000AF786039604FF00001E6
S32D000104F0386804F069FA0346002B02D04FF000033B603249386804F07DFA0346002B01D02E4B3B607B689B68FE
S32D000105181946386804F04AFA0346002B00D04BE07B683A689A607B685C887B689B881A467B685B88D31A184651
S32D0001054003F0FAFB4FF00002214B03F089FD02460B4690469946386803F000FC02460B464046494603F052FCB2
S32D0001056802460B461046194603F00EFF03469BB22344FB81FB897B73FB891B0A9BB23B737F211248FDF74BFD51
S32D0001059005211048FDF747FD7B681B7819460D48FDF741FD3B7B19460A48FDF73CFD7B7B19460848FDF737FDC9
S32D000105B8FF210648FDF733FD00BF1437BD46BDE8908300BF000034430080664000B00E4080B582B000AF786075
S32D000105E0B84B4FF48072DA60B74B4FF480729A64B54B4FF480721A64B34B4FF480725A64B14B4FF48072DA6036
S32D00010608B04B5B69AF4A43F008035361AE4B5B69AD4A43F480235361AB4B5B69AA4A43F480335361A84B5B69D4
S32D00010630A74A43F400335361A54B1B68A44A43F008031360A24B5B69A14A43F0080353619E4B1B689D4A43F066
S32D00010658080313609A4B4FF480725A62984B4FF480721A62954B4FF480721A61934B4FF480725A61914B4FF40E
S32D0001068080729A618F4B4FF48072DA618D4B4FF480721A638B4B4FF480725A63894B4FF480729A63874B4FF4A7
S32D000106A88072DA63854B4FF480721A64834B4FF480725A64814B4FF480729A647F4B4FF48072DA64814B4FF465
S32D000106D080721A607F4B4FF480729A607D4B4FF48072DA607B4B4FF480721A61784B5B69774A43F44073536103
S32D000106F8744B5B69734A43F47F2343F0F0035361734B5B69724A43F01D035361E221786800F0A8FD1D21786805
S32D0001072000F04AFE0221786800F046FE0421786800F042FEE021786800F098FD0121786800F03AFE6420FFF7FC
S32D000107482BF8E021786800F08DFD0321786800F02FFE0121786800F085FD0120FFF71CF8E621786800F07EFDF2
S32D000107700121786800F020FEA021786800F01CFEFF21786800F018FEB021786800F06EFD1C21786800F010FE72
S32D000107980F21786800F00CFE0121786800F008FE3F21786800F004FE0021786800F000FEEF21786800F0FCFD36
S32D000107C00021786800F0F8FDB421786800F04EFD0121786800F0F0FD9921786800F0ECFD0021786800F0E8FD0C
S32D000107E84521786800F0E4FD0221786800F0E0FD0021786800F0DCFD0021786800F0D8FD0021786800F0D4FDA9
S32D00010810B621786800F02AFD0121786800F0CCFD0921786800F0C8FD0021786800F0C4FD0E21786800F0C0FD03
S32D000108380221786800F0BCFD0021786800F0B8FD0021786800F0B4FDBA21786800F00AFD0F21786800F0ACFD42
S32D000108606420FEF79DFF3A21786800F0FFFC6021786800F0A1FD2A21786800F0F7FC0021786800F099FD002189
S32D00010888786800F095FD0121786800F091FD3F21786800F08DFD2B21786800F0E3FC0021786800F085FD002116
S32D000108B0786800F081FD0021786800F07DFDEF2178680BE000B0044000A0044080F00F4040F00F4000C004406B
S32D000108D8C0F00F4000F06CFD3621786800F0C2FC0021786800F064FDF021786800F0BAFC0421786800F05CFD7D
S32D00010900B821786800F0B2FC0F21786800F054FD0121786800F050FD314B1B68304A43F0080313606420FEF73E
S32D000109283BFF3621786800F09DFC0021786800F03FFDF021786800F095FC0421786800F037FD0121786800F0EC
S32D00010950BCF91E226F21786800F082F8AF225621786800F0DBF80021786800F00AFA012301221C49786800F04D
S32D000109782BFA2921786800F075FC6420FEF70CFFBE21786800F06EFC0E21786800F010FDF021786800F00CFD0D
S32D000109A00121786800F008FD0021786800F004FD0021786800F000FD0F21786800F0FCFC786800F028FA012145
S32D000109C8786800F0DAF90021786800F0AFF900BF0837BD4680BD00BF40F00F4084B3010080B582B000AF786022
S32D000109F07B680022DA617B6801221A627B680E225A607B681A229A607B6800225A617B6800229A617B684FF44A
S32D00010A18A072DA607B68F0221A617B6800221A70786801F01FFA7B6818460837BD4680BD80B582B000AF7860CC
S32D00010A40064B1B78002B05D1044B01221A707868FFF7C2FD00BF0837BD4680BD441A002080B58AB002AFF860DD
S32D00010A68B9607A607E23009362237A68B968F86800F08DFE40F24E733B610023FB61FA693B699A4240DA0023A7
S32D00010A90BB61214AFB6913441B781A46BB69934232DAFB6901331C4AD35C002B06D1FF23FB75FF23BB75FF23C8
S32D00010AB87B7512E0FB690133154AD35C012B06D1D423FB750023BB7526237B7505E0B523FB75BA23BB75B02304
S32D00010AE07B757B7DBA7DF97DF86800F0C9F80246FB68DA61F86801F0B9F9F86801F0F2F8BB690133BB61C4E7FE
S32D00010B08FB690233FB61BAE700BF2037BD4680BD0400002080B58AB002AFF860B9607A602723009395237A68CC
S32D00010B30B968F86800F02FFE40F2E6333B610023FB61FA693B699A4240DA0023BB61214AFB6913441B781A463D
S32D00010B58BB69934232DAFB6901331C4AD35C002B06D1FF23FB75FF23BB75FF237B7512E0FB690133154AD35C2C
S32D00010B80012B06D10023FB750023BB7500237B7505E0D423FB750023BB7526237B757B7DBA7DF97DF86800F07D
S32D00010BA86BF80246FB68DA61F86801F05BF9F86801F094F8BB690133BB61C4E7FB690233FB61BAE700BF203788
S32D00010BD0BD4680BD5407002080B485B000AF78600B46FB70FB78062B29D801A252F823F0150C01000D0C0100AE
S32D00010BF81B0C0100230C01002B0C0100310C0100390C01006FF07F43FB6014E00023FB6011E04FF47F03FB60BB
S32D00010C200DE04FF47F43FB6009E0FF23FB6006E04FF41903FB6002E0044BFB6000BFFB6818461437BD4680BCBC
S32D00010C48704700BF9999990080B584B000AF786039603B681B0CFB733B681B0ABB733B687B737B7BBA7BF97B55
S32D00010C70786800F005F8034618461037BD4680BD80B487B000AF7860084611461A460346FB700B46BB701346DA
S32D00010C987B70FB789B08DBB27B61BB789B08DBB23B617B789B08DBB2FB607B691A033B699B011A43FB681343EF
S32D00010CC018461C37BD4680BC704780B582B000AF78600B46FB70FB7819467868FFF77CFF03461946786800F019
S32D00010CE804F800BF0837BD4680BD80B582B000AF7860396039687868FFF7A6FF02467B681A62786801F0AEF8E2
S32D00010D10786800F0E9FB00BF0837BD4680BD80B582B000AF7860786800F0DEFB00BF0837BD4680BD80B582B086
S32D00010D3800AF78600B46FB70FB7819467868FFF747FF03461946786800F004F800BF0837BD4680BD80B582B042
S32D00010D6000AF7860396039687868FFF771FF02467B681A62786801F079F800BF0837BD4680BD80B582B000AF20
S32D00010D8878600B46FB70FB7819467868FFF720FF03461946786800F004F800BF0837BD4680BD80B582B000AF19
S32D00010DB07860396039687868FFF74AFF02467B68DA61786801F052F800BF0837BD4680BD80B586B000AFF860B2
S32D00010DD8B9607A603B6000237B617B69BA6813441B78002B0FD07B69BA6813441B783A687968F86800F030FE74
S32D00010E007B680C337B607B6901337B61E9E700BF1837BD4680BD80B582B000AF7860FCF7DFFF67210120FCF759
S32D00010E284AFF00210220FCF746FFA0210320FCF742FF50210420FCF73EFF20210520FCF73AFF20210620FCF70E
S32D00010E5036FF77210720FCF732FF00210820FCF72EFF00210920FCF72AFF00210A20FCF726FF04210B20FCF7E6
S32D00010E7822FF7B684FF0FF32DA637B684FF0FF321A6400BF0837BD4680BD00000000000080B586B000AFF86019
S32D00010EA0B9607A600020FCF72CFF0346FB75FB7D03F00203002B00F0CE80FCF73FFFE020FCF7F0FE0220FEF737
S32D00010EC86BFCFCF745FF0120FEF766FCFCF732FFA520FCF7E3FE0120FEF75EFCFCF705FF03469BB21B02BB82D1
S32D00010EF0FCF7FFFE03469AB2BB8A1343BB82FCF7F8FE03469BB21B027B82FCF7F2FE03469AB27B8A13437B820D
S32D00010F18BB8A1B09BB827B8A1B097B82FCF718FFFB68DB6BB3F1FF3F34D1FB681B6CB3F1FF3F2FD1BA8AFB68D1
S32D00010F40DA637A8AFB681A647B8AC3F57F630F337B82BB8A184602F0EFFE49A3D3E9002302F054FF02460B4657
S32D00010F681046194603F030FA0246BB681A607B8A184602F0DDFE42A3D3E9002302F042FF02460B46104619462E
S32D00010F9003F01EFA02467B681A605AE0FB68DA6BBB8AD31A1946F86800F074F80346632B0CDCFB681A6C7B8AA6
S32D00010FB8D31A1946F86800F069F80346632B01DC012300E00023002B2FD0BA8AFB68DA637A8AFB681A647B8A3A
S32D00010FE0C3F57F630F337B82BB8A184602F0A4FE23A3D3E9002302F009FF02460B461046194603F0E5F90246CC
S32D00011008BB681A607B8A184602F092FE1CA3D3E9002302F0F7FE02460B461046194603F0D3F902467B681A6000
S32D000110300FE0BB68164A1A607B68154A1A60FB684FF0FF32DA63FB684FF0FF321A64002310E001230EE0BB6840
S32D000110580D4A1A607B680C4A1A60FB684FF0FF32DA63FB684FF0FF321A64002318461837BD4680BDAFF3008052
S32D00011080144001144001B43F1EE0011EE001AE3F000080BF80B483B000AF786039603B68002B02DA3B685B4209
S32D000110A83B603B6818460C37BD4680BC704780B584B000AF786039600023FB60786800F0D2FAFB683A68134445
S32D000110D01B78002B12D07B6859697B689869FB683A6813441B780246786800F09FFC786800F0D1FAFB680133F4
S32D000110F8FB60E6E700BF1037BD4680BD80B592B000AF786039604FF00001386803F06CFC0346002B1FD0386886
S32D0001112003F07AFC03467B64786C03F05BFA03461946386803F0A0F903461F49184603F0A5FA0346184603F0D4
S32D0001114867FC03463B6407F10C003B6C7A6C194904F0F2FC22E03B6883F000433B60386803F056FC03467B6455
S32D00011170786C03F037FA03461946386803F07CF903460D49184603F081FA0346184603F043FC03463B6407F174
S32D000111980C003B6C7A6C084904F0CEFC07F10C0319467868FFF783FF00BF4837BD4680BD00007A44A0B3010032
S32D000111C094B3010080B582B000AF78600B46FB70786800F04CFA7B6859697B689A69FB78786800F023FC78682B
S32D000111E800F055FA00BF0837BD4680BD80B582B000AF78603960786800F035FA39687868FFF755FF786800F03A
S32D0001121019FA00BF0837BD4680BD80B582B000AF78603960786800F022FA39687868FFF769FF786800F006FA3C
S32D0001123800BF0837BD4680BD80B582B000AF78600B46FB70786800F00EFAFB7819467868FFF7B4FF786800F09C
S32D00011260F1F900BF0837BD4680BD000080B483B000AF78600B46FB704D4B1B684C4A23F0080313604B4B1B6832
S32D000112884A4A23F480231360484B1B68474A43F480331360454B1B68444A23F440731360414B1B68404A23F4E4
S32D000112B0435323F0300313603E4B1A68FB785B0203F400733B4913430B603A4B1A68FB785B101B0203F480734A
S32D000112D8364913430B60344B1A68FB789B101B0103F01003304913430B602F4B1A68FB78DB105B0103F0200360
S32D000113002B4913430B602A4B1A68FB781B119B0103F04003264913430B60254B1A68FB785B11DB01DBB222494C
S32D0001132813430B60204B1A68FB789B111B0303F480531D4913430B601B4B1A6897F90330DB115BB25B0303F4C1
S32D000113500053174913430B60164B1B68154A23F400331360134B1B68124A43F4003313600F4B1B680E4A43F078
S32D00011378080313600D4B1B680C4A43F440731360094B1B68084A43F4435343F030031360064B1B68054A43F411
S32D000113A08023136000BF0C37BD4680BC704700BF80F00F4040F00F4080B483B000AF78600B46FB70464B1B6855
S32D000113C8454A23F008031360444B1B68434A43F480331360414B1B68404A43F4802313603E4B1B683D4A23F44A
S32D000113F0407313603A4B1B68394A23F4435323F030031360374B1A68FB785B0203F40073344913430B60334BBD
S32D000114181A68FB785B101B0203F480732F4913430B602D4B1A68FB789B101B0103F01003294913430B60284B25
S32D000114401A68FB78DB105B0103F02003244913430B60234B1A68FB781B119B0103F040031F4913430B601E4B0A
S32D000114681A68FB785B11DB01DBB21B4913430B60194B1A68FB789B111B0303F48053164913430B60144B1A6878
S32D0001149097F90330DB115BB25B0303F40053104913430B600F4B1B680E4A23F4003313600C4B1B680B4A43F457
S32D000114B800331360084B1B68074A43F008031360064B1B68054A23F48023136000BF0C37BD4680BC704700BF80
S32D000114E080F00F4040F00F4080B586B000AF78607B6800225A617B6800229A617B681B6AFB60FB68FB72FB68F7
S32D000115081B0ABB72FB681B0CDBB203F003037B722A217868FFF7A6FE00217868FFF748FF00217868FFF744FF28
S32D0001153001217868FFF740FF3F217868FFF73CFF2B217868FFF792FE00217868FFF734FF00217868FFF730FFE2
S32D0001155800217868FFF72CFFEF217868FFF728FF2C217868FFF77EFE314B1B68304A23F4407313602F4B1B68E3
S32D000115802E4A23F47F2323F0F00313602C4B1B682B4A23F01D031360274B1A687B681B6B254913430B60254B81
S32D000115A81A687B685B6B234913430B60224B1A687B689B6B204913430B601E4B1B681D4A23F0080313601A4B71
S32D000115D01B68194A43F48023136000237B617B69EF2B19D800233B613B69B3F5A07F0FD2114B1B68104A23F470
S32D000115F8003313600E4B1B680D4A43F4003313603B6901333B61EBE77B6901337B61E2E7084B1B68074A43F0B1
S32D0001162008031360044B1B68034A23F48023136000BF1837BD4680BD40F00F4080F00F40C0F00F4080B483B0DF
S32D0001164800AF78607B689B69002B07DD7B685B695A1C7B685A617B6800229A6100BF0C37BD4680BC704780B50E
S32D0001167082B000AF78607B685A697B685B689A4205DB7B6800225A617868FFF72DFF00BF0837BD4680BD80B555
S32D0001169882B000AF78607B689B695A1C7B689A617B689A697B689B689A4205D17868FFF7C5FF7868FFF7D7FF6B
S32D000116C000BF0837BD4680BD80B586B002AFF860B9607A600123009301237A68B968F86800F059F8F86800F087
S32D000116E8FDFA00BF1037BD4680BD80B485B000AF786039607B681B68FB603B681A687B681A603B68FA681A604B
S32D0001171000BF1437BD4680BC704780B586B002AFF860B9607A603B60BA683B681A447B68009313467A68B968B3
S32D00011738F86800F0D1F8BA683B68D118BA683B68D0187A68BB691344009303467A68F86800F0C2F8BA683B6824
S32D00011760D1187A68BB69D0187A68BB6913440093BB680246F86800F0B3F87A68BB691A447B680093BB68B9680F
S32D00011788F86800F0A9F800BF1037BD4680BD80B588B000AFF860B9607A603B60FB681B78022B03D0FB681B780D
S32D000117B0032B11D17B68FB61BA6AFB691344013BBB61FB68DA68BB68D31A3B613B683A69D31A01337B610DE003
S32D000117D8BB68FB613A68FB691344013BBB617B687B61BA6A7B691344013B3B612A21F868FFF738FDFB691B0A59
S32D00011800DBB203F00F03DBB21946F868FFF7D4FDFB69DBB21946F868FFF7CEFDBB691B0ADBB203F00F03DBB23B
S32D000118281946F868FFF7C4FDBB69DBB21946F868FFF7BEFD2B21F868FFF714FD7B691B0ADBB203F00F03DBB21F
S32D000118501946F868FFF7B0FD7B69DBB21946F868FFF7AAFD3B691B0ADBB203F00F03DBB21946F868FFF7A0FD00
S32D000118783B69DBB21946F868FFF79AFD2C21F868FFF7F0FC00BF2037BD4680BD80B588B002AFF860B9607A6076
S32D000118A03B603B6A00933B687A68B968F868FFF772FFF86800F016FA01237B613B683A6A02FB03F37A699A4280
S32D000118C806DAF86800F0D2F97B6901337B61F1E700BF1837BD4680BD90B58BB000AFF860B9607A603B603A6825
S32D000118F0BB68D31A1946F868FFF7CCFBF861BA6B7B68D31A1946F868FFF7C4FBB861BA69FB699A42CCBF012350
S32D000119180023FB75FB7D002B0CD03A1D07F1080311461846FFF7E1FE3B4607F138011846FFF7DBFEBA683B6806
S32D000119409A420CDD3A4607F1080311461846FFF7D0FE3B1D07F138011846FFF7CAFE3A68BB689A4206D1BB6877
S32D000119687A681946F868FFF7ABFE55E0BA6B7B68D31A184602F032FE04463A68BB68D31A184602F02BFE0346A8
S32D000119901946204602F02EFF03463B617B68184602F020FE03467B62BB683B623B683A6A9A4235DCFB7D002B51
S32D000119B814D0786A02F0CEF94FF00002184B02F06BF802460B461046194602F0B5FC03463A6A1946F868FFF7F5
S32D000119E073FE13E0786A02F0B9F94FF000020E4B02F056F802460B461046194602F0A0FC03461A46396AF8688C
S32D00011A08FFF75EFE3969786A02F034FD03467B623B6A01333B62C5E72C37BD4690BD00BF0000E03F80B584B074
S32D00011A3000AFF860B9607A60FB707A6813465B0013449B00991CBA6813461B011344DA1CFB78F86800F004F842
S32D00011A5800BF1037BD4680BD80B58EB002AFF860B9607A60FB70FB780A2B06D1F868FFF7FAFDF868FFF7E2FD3E
S32D00011A80F2E0FB787D2B02D8FB781F2B01D82023FB70FB78203BFB70112300930C237A68B968F868FFF777FE2F
S32D00011AA8FA7813469B0013446F4AD35C3B75FA7813469B00134401336B4AD35C7B75FA7813469B001344023303
S32D00011AD0674AD35CBB75FA7813469B0013440333634AD35CFB75FA7813469B00134404335F4AD35C3B760023F8
S32D00011AF8BB62BB6A062B00F3A180F86800F050F9F86800F0B3F8002387F82F3000237B627B6A042B35DC07F186
S32D00011B2014027B6A13441B7803F00103002B14BF01230023FB76FB7E002B11D097F82F3083F00103DBB2002B62
S32D00011B4803D0F86800F0CAF802E0F86800F08EF8F86800F08BF80DE097F82F30002B03D0F86800F01DF902E0DD
S32D00011B70F86800F07FF8F86800F07CF8FB7E87F82F307B6A01337B62C6E797F82F30002B03D0F86800F008F984
S32D00011B9802E0F86800F06AF8F86800F067F8002387F82F3000233B623B6A042B42DC07F114023B6A13441B788B
S32D00011BC003F00103002B14BF01230023BB76BB7E002B11D097F82F3083F00103DBB2002B03D0F86800F07EF88E
S32D00011BE802E0F86800F042F8F86800F03FF80DE097F82F30002B03D0F86800F0D1F802E0F86800F033F8F8682C
S32D00011C1000F030F8BB7E87F82F3007F114023B6A13441B785B08D9B207F114023B6A13440A461A703B6A01332E
S32D00011C383B62B9E7BB6A0133BB625AE7F86800F0AFF8002387F82F300123FB61FB69232B06DCF86800F00AF82B
S32D00011C60FB690133FB61F5E73037BD4680BD00BF3C0B002080B483B000AF7860174B1B68164A43F48033136028
S32D00011C88154B1B68144A23F008031360114B1B68104A43F4802313600E4B1B680D4A23F4003313600B4B1B680C
S32D00011CB00A4A43F400331360094B1B68084A43F008031360054B1B68044A23F48023136000BF0C37BD4680BC6B
S32D00011CD8704700BF40F00F4080F00F4080B483B000AF78602B4B1B682A4A43F480331360294B1B68284A23F0F5
S32D00011D0008031360254B1B68244A43F480231360224B1B68214A23F440731360204B1B681F4A23F47F2323F0CD
S32D00011D28F00313601D4B1B681C4A23F01D031360184B1A687B685B6A164913430B60164B1A687B689B6A14495A
S32D00011D5013430B60134B1A687B68DB6A114913430B600E4B1B680D4A23F4003313600B4B1B680A4A43F40033F9
S32D00011D781360094B1B68084A43F008031360054B1B68044A23F48023136000BF0C37BD4680BC704740F00F402A
S32D00011DA080F00F40C0F00F4080B483B000AF78602B4B1B682A4A43F480331360294B1B68284A23F008031360A4
S32D00011DC8254B1B68244A43F480231360224B1B68214A23F440731360204B1B681F4A23F47F2323F0F00313601D
S32D00011DF01D4B1B681C4A23F01D031360184B1A687B681B6B164913430B60164B1A687B685B6B144913430B60B5
S32D00011E18134B1A687B689B6B114913430B600E4B1B680D4A23F4003313600B4B1B680A4A43F400331360094B69
S32D00011E401B68084A43F008031360054B1B68044A23F48023136000BF0C37BD4680BC704740F00F4080F00F4069
S32D00011E68C0F00F4080B485B000AF78607B681B6AFB60FB68FB72FB681B0ABB72FB681B0CDBB203F003037B7217
S32D00011E907B6800225A627B6800229A627B680022DA627B6800221A637B6800225A637B6800229A637B681A6B72
S32D00011EB8FB7A5B0203F400731A437B681A637B681A6BFB7A5B101B0203F480731A437B681A637B685A6BFB7AD9
S32D00011EE09B101B0103F010031A437B685A637B685A6BFB7ADB105B0103F020031A437B685A637B685A6BFB7A75
S32D00011F081B119B0103F040031A437B685A637B685A6BFB7A5B11DB01DBB21A437B685A637B685A6BFB7A9B11F7
S32D00011F301B0303F480531A437B685A637B685A6B97F90B30DB115BB25B0303F400531A437B685A637B685A6BE4
S32D00011F58BB7A9B0303F480431A437B685A637B685A6BBB7A5B10DB039BB21A437B685A637B685A6BBB7A9B10D8
S32D00011F801B0403F480331A437B685A637B685A6BBB7ADB105B0403F400331A437B685A637B685A6BBB7A1B1115
S32D00011FA89B0403F480231A437B685A637B685A6BBB7A5B11DB0403F400231A437B685A637B689A6BBB7A9B11CC
S32D00011FD003F001031A437B689A637B689A6B97F90A30DB115BB29B0003F004031A437B689A637B689A6B7B7A54
S32D00011FF8DB0003F008031A437B689A637B689A6B7B7A5B101B0103F010031A437B689A637B68DB69FB60FB6818
S32D00012020FB72FB681B0ABB72FB681B0CDBB203F003037B727B685A6AFB7A5B0203F400731A437B685A627B68B0
S32D000120485A6AFB7A5B101B0203F480731A437B685A627B689A6AFB7A9B101B0103F010031A437B689A627B687A
S32D000120709A6AFB7ADB105B0103F020031A437B689A627B689A6AFB7A1B119B0103F040031A437B689A627B68B6
S32D000120989A6AFB7A5B11DB01DBB21A437B689A627B689A6AFB7A9B111B0303F480531A437B689A627B689A6A7C
S32D000120C097F90B30DB115BB25B0303F400531A437B689A627B689A6ABB7A9B0303F480431A437B689A627B68B6
S32D000120E89A6ABB7A5B10DB039BB21A437B689A627B689A6ABB7A9B101B0403F480331A437B689A627B689A6A0B
S32D00012110BB7ADB105B0403F400331A437B689A627B689A6ABB7A1B119B0403F480231A437B689A627B689A6A17
S32D00012138BB7A5B11DB0403F400231A437B689A627B68DA6ABB7A9B1103F001031A437B68DA627B68DA6A97F970
S32D000121600A30DB115BB29B0003F004031A437B68DA627B68DA6A7B7ADB0003F008031A437B68DA627B68DA6A74
S32D000121887B7A5B101B0103F010031A437B68DA6200BF1437BD4680BC704780B483B000AF78607B6818460C37B8
S32D000121B0BD4680BC704780B584B000AFF860B9607A603B60FB682033B968184603F0D8FCFB687A681A60FB68EE
S32D000121D83A689A60FB68BA691A61FB68FA695A61FB681A68FB681B691A44FB685A60FB689A68FB685B691A4489
S32D00012200FB68DA60FB683A6A9A61FB687A6ADA61FB680022C3F8E82000BF1037BD4680BDF0B585B002AF78609D
S32D000122287B689B6919461F48FEF7BBFD7B6819687B689A687B6818697B685B69009303461848FFF766FA7B6864
S32D00012250DB6919461548FEF7A8FD7B6803F120047B681B681D467B681B691E467B682033184603F0E5FC024686
S32D0001227813465B0013449B00F31A5B082B4418467B689A687B685B69113BD90F0B445B10134402462146034889
S32D000122A0FEF796FD00BF0C37BD46F0BD001A002080B584B002AF78607B689B6919461F48FEF773FD7B681B6831
S32D000122C8591C7B689B685A1C7B681B69981E7B685B69023B009303461648FFF71AFA7B681B68991C7B689B68D0
S32D000122F09A1C7B681B69181F7B685B69043B009303460E48FFF709FA7B681B68D91C7B689B68DA1C7B681B69BC
S32D00012318981F7B685B69063B009303460548FFF7F8F97B680122C3F8E82000BF0837BD4680BD00BF001A0020E7
S32D0001234080B584B002AF786000211F48FEF72DFD7B681B68D91C7B689B68DA1C7B681B69981F7B685B69063B98
S32D00012368009303461648FFF7D4F97B681B68991C7B689B689A1C7B681B69181F7B685B69043B009303460E48DC
S32D00012390FFF7C3F97B681B68591C7B689B685A1C7B681B69981E7B685B69023B009303460548FFF7B2F97B6887
S32D000123B80022C3F8E82000BF0837BD4680BD00BF001A002080B584B000AFF860B9607A603B60FB681B68184698
S32D000123E002F000F90246BB681946104602F0F6FA0346002B00F08180FB685B68184602F0F1F80246BB68194653
S32D00012408104602F0F1FA0346002B72D0FB689B68184602F0E3F802467B681946104602F0D9FA0346002B64D0DE
S32D00012430FB68DB68184602F0D5F802467B681946104602F0D5FA0346002B56D03A1D07F1080319462B48FEF75E
S32D000124581FFDFB681B68184602F0C0F80246BB681946104602F0B6FA0346002B3FD0FB685B68184602F0B2F8E6
S32D000124800246BB681946104602F0B2FA0346002B31D0FB689B68184602F0A4F802467B681946104602F09AFA42
S32D000124A80346002B23D0FB68DB68184602F096F802467B681946104602F096FA0346002B15D03B68002B10D1B0
S32D000124D0FB68D3F8E830002B03D1F868FFF7E8FE07E0FB68D3F8E830002B02D0F868FFF727FF012302E000238D
S32D000124F800E0002318461037BD4680BD001A002080B586B000AFF860B9607A60BB687B617B683B6179693A692B
S32D000125200123F868FFF752FF0346002B14BF01230023DBB2002B08D007F1100207F1140319460448FEF7A8FC46
S32D00012548E8E700BF1837BD4680BD00BF001A0020B0B592B004AFF860B9607A603B60FB6C7B633B683B63F86C24
S32D0001257001F0E2FB02460B464FF000004E4901F08DFA02460B4614461D46386D01F0D4FB02460B46204629465E
S32D0001259801F080FA02460B461046194601F014FF03463B62386801F0C3FB02460B464FF00000404901F06EFA68
S32D000125C002460B4614461D46B86C01F0B5FB02460B462046294601F061FA02460B461046194601F0F5FE03469C
S32D000125E8FB61786801F0FAFF03461946386A02F0FDF80346184602F00BFA0346BB61B86801F0ECFF03461946C6
S32D00012610F86902F0EFF80346184602F0FDF903467B6100237B620123BB62BA6ABB689A423DDC0123FB62FA6A4B
S32D000126387B689A422DDC7B6AEC2202FB03F3FA68D0187A6A13469B0013449B001A467B6D9918FB6D0393BB6D92
S32D0001266002937B690193BB6900933B6B7A6BFFF7A2FD7B6AEC2202FB03F3FA6813441846FFF7CEFD7B6A013390
S32D000126887B627A6BBB6913447B63FB6A0133FB62CDE73A6B7B6913443B63FB6C7B63BB6A0133BB62BDE700BFC2
S32D000126B03837BD46B0BD00BF0000744000006E4080B582B000AF786039607B68012B07D13B684FF6FF7293425F
S32D000126D802D10348FEF784F900BF0837BD4680BD001A002080B500AF4FF6FF710120FFF7E3FF80BD80B582B095
S32D0001270000AF7860164B03F580535B6B144A43F0400302F580525363124B4FF400725A62104B4FF400721A6284
S32D000127280F4B14225A700E4B1B7ADBB20C4A43F00103DBB213720A4B80229A7002212B20FBF742FA3D212A20C9
S32D00012750FBF73EFA7B6818460837BD4680BD00BF0070044000C004400060064080B582B000AF786039607B68E9
S32D00012778012B07D13B684FF6FF72934202D10348FFF7B8FF00BF0837BD4680BD481A002080B500AF4FF6FF71DC
S32D000127A00120FFF7E3FF80BD80B582B000AF78607B681846FDF75CFB03460F49184601F065FF0346184601F06E
S32D000127C8C9FA09A3D3E9002301F046FC02460B461046194601F0F8FD034618460837BD4680BD00BFAFF3008026
S32D000127F00000000000A0694000404A4480B582B000AF78600B46FB707B68FA7811461846FDF71EFB7B681846A1
S32D000128180837BD4680BD000080B582B000AF786039607B68012B08D13B684FF6FF72934203D120210348FFF71F
S32D00012840DDFF00BF0837BD4680BD00BF4C1A002080B500AF4FF6FF710120FFF7E1FF80BD80B483B000AF78604F
S32D000128687B6800221A707B6818460C37BD4680BC7047000080B582B000AF78607B681B7883F00103DBB2002BA5
S32D0001289052D07B6801221A702A4B03F580535B6B284A43F4806302F580525363264B4FF400725A60244B4FF4C4
S32D000128B800729A60234B1B684FF4165219462248FBF7DAFA204BDB78DBB21F4A23F00C03DBB2D3701C4BDB78FA
S32D000128E0DBB21B4A43F02003DBB2D370184BDB7ADBB2174A23F02003DBB2D372154BD3F88431144A43F400533B
S32D00012908C2F88431114B5B68104A43F4005353600D4BDB78DBB20C4A43F00C03DBB2D3706420FCF739FF7B6849
S32D0001293001221A70012300E0002318460837BD4680BD00BF00700440009004404819002000A0064000E100E058
